{
  "_format": "hh-sol-artifact-1",
  "contractName": "DEX",
  "sourceName": "contracts/carboncredit.sol",
  "abi": [
    {
      "inputs": [],
      "stateMutability": "nonpayable",
      "type": "constructor"
    },
    {
      "anonymous": false,
      "inputs": [
        {
          "indexed": true,
          "internalType": "address",
          "name": "owner",
          "type": "address"
        },
        {
          "indexed": true,
          "internalType": "address",
          "name": "spender",
          "type": "address"
        },
        {
          "indexed": false,
          "internalType": "uint256",
          "name": "value",
          "type": "uint256"
        }
      ],
      "name": "Approval",
      "type": "event"
    },
    {
      "anonymous": false,
      "inputs": [
        {
          "indexed": false,
          "internalType": "uint256",
          "name": "amount",
          "type": "uint256"
        }
      ],
      "name": "Bought",
      "type": "event"
    },
    {
      "anonymous": false,
      "inputs": [
        {
          "indexed": false,
          "internalType": "uint256",
          "name": "amount",
          "type": "uint256"
        }
      ],
      "name": "Sold",
      "type": "event"
    },
    {
      "anonymous": false,
      "inputs": [
        {
          "indexed": true,
          "internalType": "address",
          "name": "from",
          "type": "address"
        },
        {
          "indexed": true,
          "internalType": "address",
          "name": "to",
          "type": "address"
        },
        {
          "indexed": false,
          "internalType": "uint256",
          "name": "value",
          "type": "uint256"
        }
      ],
      "name": "Transfer",
      "type": "event"
    },
    {
      "inputs": [
        {
          "internalType": "address",
          "name": "owner",
          "type": "address"
        },
        {
          "internalType": "address",
          "name": "delegate",
          "type": "address"
        }
      ],
      "name": "allowance",
      "outputs": [
        {
          "internalType": "uint256",
          "name": "",
          "type": "uint256"
        }
      ],
      "stateMutability": "view",
      "type": "function"
    },
    {
      "inputs": [
        {
          "internalType": "address",
          "name": "delegate",
          "type": "address"
        },
        {
          "internalType": "uint256",
          "name": "numTokens",
          "type": "uint256"
        }
      ],
      "name": "approve",
      "outputs": [
        {
          "internalType": "bool",
          "name": "",
          "type": "bool"
        }
      ],
      "stateMutability": "nonpayable",
      "type": "function"
    },
    {
      "inputs": [
        {
          "internalType": "address",
          "name": "tokenOwner",
          "type": "address"
        }
      ],
      "name": "balanceOf",
      "outputs": [
        {
          "internalType": "uint256",
          "name": "",
          "type": "uint256"
        }
      ],
      "stateMutability": "view",
      "type": "function"
    },
    {
      "inputs": [],
      "name": "buy",
      "outputs": [],
      "stateMutability": "payable",
      "type": "function"
    },
    {
      "inputs": [],
      "name": "decimals",
      "outputs": [
        {
          "internalType": "uint8",
          "name": "",
          "type": "uint8"
        }
      ],
      "stateMutability": "view",
      "type": "function"
    },
    {
      "inputs": [],
      "name": "name",
      "outputs": [
        {
          "internalType": "string",
          "name": "",
          "type": "string"
        }
      ],
      "stateMutability": "view",
      "type": "function"
    },
    {
      "inputs": [
        {
          "internalType": "uint256",
          "name": "amount",
          "type": "uint256"
        }
      ],
      "name": "sell",
      "outputs": [],
      "stateMutability": "nonpayable",
      "type": "function"
    },
    {
      "inputs": [],
      "name": "symbol",
      "outputs": [
        {
          "internalType": "string",
          "name": "",
          "type": "string"
        }
      ],
      "stateMutability": "view",
      "type": "function"
    },
    {
      "inputs": [],
      "name": "token",
      "outputs": [
        {
          "internalType": "contract IERC20",
          "name": "",
          "type": "address"
        }
      ],
      "stateMutability": "view",
      "type": "function"
    },
    {
      "inputs": [],
      "name": "totalSupply",
      "outputs": [
        {
          "internalType": "uint256",
          "name": "",
          "type": "uint256"
        }
      ],
      "stateMutability": "view",
      "type": "function"
    },
    {
      "inputs": [
        {
          "internalType": "address",
          "name": "receiver",
          "type": "address"
        },
        {
          "internalType": "uint256",
          "name": "numTokens",
          "type": "uint256"
        }
      ],
      "name": "transfer",
      "outputs": [
        {
          "internalType": "bool",
          "name": "",
          "type": "bool"
        }
      ],
      "stateMutability": "nonpayable",
      "type": "function"
    },
    {
      "inputs": [
        {
          "internalType": "address",
          "name": "owner",
          "type": "address"
        },
        {
          "internalType": "address",
          "name": "buyer",
          "type": "address"
        },
        {
          "internalType": "uint256",
          "name": "numTokens",
          "type": "uint256"
        }
      ],
      "name": "transferFrom",
      "outputs": [
        {
          "internalType": "bool",
          "name": "",
          "type": "bool"
        }
      ],
      "stateMutability": "nonpayable",
      "type": "function"
    }
  ],
  "bytecode": "0x608060405269021e19e0c9bab240000060025534801561001e57600080fd5b506002546000803373ffffffffffffffffffffffffffffffffffffffff1673ffffffffffffffffffffffffffffffffffffffff16815260200190815260200160002081905550604051610070906100d2565b604051809103906000f08015801561008c573d6000803e3d6000fd5b50600360006101000a81548173ffffffffffffffffffffffffffffffffffffffff021916908373ffffffffffffffffffffffffffffffffffffffff1602179055506100df565b610d9e8061174583390190565b611657806100ee6000396000f3fe6080604052600436106100a75760003560e01c806395d89b411161006457806395d89b41146101e4578063a6f2ae3a1461020f578063a9059cbb14610219578063dd62ed3e14610256578063e4849b3214610293578063fc0c546a146102bc576100a7565b806306fdde03146100ac578063095ea7b3146100d757806318160ddd1461011457806323b872dd1461013f578063313ce5671461017c57806370a08231146101a7575b600080fd5b3480156100b857600080fd5b506100c16102e7565b6040516100ce9190610f6d565b60405180910390f35b3480156100e357600080fd5b506100fe60048036038101906100f99190611028565b610320565b60405161010b9190611083565b60405180910390f35b34801561012057600080fd5b50610129610412565b60405161013691906110ad565b60405180910390f35b34801561014b57600080fd5b50610166600480360381019061016191906110c8565b61041c565b6040516101739190611083565b60405180910390f35b34801561018857600080fd5b50610191610782565b60405161019e9190611137565b60405180910390f35b3480156101b357600080fd5b506101ce60048036038101906101c99190611152565b610787565b6040516101db91906110ad565b60405180910390f35b3480156101f057600080fd5b506101f96107cf565b6040516102069190610f6d565b60405180910390f35b610217610808565b005b34801561022557600080fd5b50610240600480360381019061023b9190611028565b610a0f565b60405161024d9190611083565b60405180910390f35b34801561026257600080fd5b5061027d6004803603810190610278919061117f565b610be3565b60405161028a91906110ad565b60405180910390f35b34801561029f57600080fd5b506102ba60048036038101906102b591906111bf565b610c6a565b005b3480156102c857600080fd5b506102d1610eb7565b6040516102de919061124b565b60405180910390f35b6040518060400160405280600d81526020017f436172626f6e204372656469740000000000000000000000000000000000000081525081565b600081600160003373ffffffffffffffffffffffffffffffffffffffff1673ffffffffffffffffffffffffffffffffffffffff16815260200190815260200160002060008573ffffffffffffffffffffffffffffffffffffffff1673ffffffffffffffffffffffffffffffffffffffff168152602001908152602001600020819055508273ffffffffffffffffffffffffffffffffffffffff163373ffffffffffffffffffffffffffffffffffffffff167f8c5be1e5ebec7d5bd14f71427d1e84f3dd0314c0f7b2291e5b200ac8c7c3b9258460405161040091906110ad565b60405180910390a36001905092915050565b6000600254905090565b60008060008573ffffffffffffffffffffffffffffffffffffffff1673ffffffffffffffffffffffffffffffffffffffff1681526020019081526020016000205482111561046957600080fd5b600160008573ffffffffffffffffffffffffffffffffffffffff1673ffffffffffffffffffffffffffffffffffffffff16815260200190815260200160002060003373ffffffffffffffffffffffffffffffffffffffff1673ffffffffffffffffffffffffffffffffffffffff168152602001908152602001600020548211156104f257600080fd5b816000808673ffffffffffffffffffffffffffffffffffffffff1673ffffffffffffffffffffffffffffffffffffffff1681526020019081526020016000205461053c9190611295565b6000808673ffffffffffffffffffffffffffffffffffffffff1673ffffffffffffffffffffffffffffffffffffffff1681526020019081526020016000208190555081600160008673ffffffffffffffffffffffffffffffffffffffff1673ffffffffffffffffffffffffffffffffffffffff16815260200190815260200160002060003373ffffffffffffffffffffffffffffffffffffffff1673ffffffffffffffffffffffffffffffffffffffff168152602001908152602001600020546106069190611295565b600160008673ffffffffffffffffffffffffffffffffffffffff1673ffffffffffffffffffffffffffffffffffffffff16815260200190815260200160002060003373ffffffffffffffffffffffffffffffffffffffff1673ffffffffffffffffffffffffffffffffffffffff16815260200190815260200160002081905550816000808573ffffffffffffffffffffffffffffffffffffffff1673ffffffffffffffffffffffffffffffffffffffff168152602001908152602001600020546106d091906112c9565b6000808573ffffffffffffffffffffffffffffffffffffffff1673ffffffffffffffffffffffffffffffffffffffff168152602001908152602001600020819055508273ffffffffffffffffffffffffffffffffffffffff168473ffffffffffffffffffffffffffffffffffffffff167fddf252ad1be2c89b69c2b068fc378daa952ba7f163c4a11628f55a4df523b3ef8460405161076f91906110ad565b60405180910390a3600190509392505050565b601281565b60008060008373ffffffffffffffffffffffffffffffffffffffff1673ffffffffffffffffffffffffffffffffffffffff168152602001908152602001600020549050919050565b6040518060400160405280600481526020017f435242430000000000000000000000000000000000000000000000000000000081525081565b60003490506000600360009054906101000a900473ffffffffffffffffffffffffffffffffffffffff1673ffffffffffffffffffffffffffffffffffffffff166370a08231306040518263ffffffff1660e01b815260040161086a919061130c565b602060405180830381865afa158015610887573d6000803e3d6000fd5b505050506040513d601f19601f820116820180604052508101906108ab919061133c565b9050600082116108f0576040517f08c379a00000000000000000000000000000000000000000000000000000000081526004016108e7906113b5565b60405180910390fd5b80821115610933576040517f08c379a000000000000000000000000000000000000000000000000000000000815260040161092a90611421565b60405180910390fd5b600360009054906101000a900473ffffffffffffffffffffffffffffffffffffffff1673ffffffffffffffffffffffffffffffffffffffff1663a9059cbb33846040518363ffffffff1660e01b8152600401610990929190611441565b6020604051808303816000875af11580156109af573d6000803e3d6000fd5b505050506040513d601f19601f820116820180604052508101906109d39190611496565b507f4e08ba899977cf7d4c2964bce71c6b9a7ef76ee5166a4c1249a1e08016e33ef182604051610a0391906110ad565b60405180910390a15050565b60008060003373ffffffffffffffffffffffffffffffffffffffff1673ffffffffffffffffffffffffffffffffffffffff16815260200190815260200160002054821115610a5c57600080fd5b816000803373ffffffffffffffffffffffffffffffffffffffff1673ffffffffffffffffffffffffffffffffffffffff16815260200190815260200160002054610aa69190611295565b6000803373ffffffffffffffffffffffffffffffffffffffff1673ffffffffffffffffffffffffffffffffffffffff16815260200190815260200160002081905550816000808573ffffffffffffffffffffffffffffffffffffffff1673ffffffffffffffffffffffffffffffffffffffff16815260200190815260200160002054610b3291906112c9565b6000808573ffffffffffffffffffffffffffffffffffffffff1673ffffffffffffffffffffffffffffffffffffffff168152602001908152602001600020819055508273ffffffffffffffffffffffffffffffffffffffff163373ffffffffffffffffffffffffffffffffffffffff167fddf252ad1be2c89b69c2b068fc378daa952ba7f163c4a11628f55a4df523b3ef84604051610bd191906110ad565b60405180910390a36001905092915050565b6000600160008473ffffffffffffffffffffffffffffffffffffffff1673ffffffffffffffffffffffffffffffffffffffff16815260200190815260200160002060008373ffffffffffffffffffffffffffffffffffffffff1673ffffffffffffffffffffffffffffffffffffffff16815260200190815260200160002054905092915050565b60008111610cad576040517f08c379a0000000000000000000000000000000000000000000000000000000008152600401610ca490611535565b60405180910390fd5b6000600360009054906101000a900473ffffffffffffffffffffffffffffffffffffffff1673ffffffffffffffffffffffffffffffffffffffff1663dd62ed3e33306040518363ffffffff1660e01b8152600401610d0c929190611555565b602060405180830381865afa158015610d29573d6000803e3d6000fd5b505050506040513d601f19601f82011682018060405250810190610d4d919061133c565b905081811015610d92576040517f08c379a0000000000000000000000000000000000000000000000000000000008152600401610d89906115ca565b60405180910390fd5b600360009054906101000a900473ffffffffffffffffffffffffffffffffffffffff1673ffffffffffffffffffffffffffffffffffffffff166323b872dd3330856040518463ffffffff1660e01b8152600401610df1939291906115ea565b6020604051808303816000875af1158015610e10573d6000803e3d6000fd5b505050506040513d601f19601f82011682018060405250810190610e349190611496565b503373ffffffffffffffffffffffffffffffffffffffff166108fc839081150290604051600060405180830381858888f19350505050158015610e7b573d6000803e3d6000fd5b507f92f64ca637d023f354075a4be751b169c1a8a9ccb6d33cdd0cb352054399572782604051610eab91906110ad565b60405180910390a15050565b600360009054906101000a900473ffffffffffffffffffffffffffffffffffffffff1681565b600081519050919050565b600082825260208201905092915050565b60005b83811015610f17578082015181840152602081019050610efc565b60008484015250505050565b6000601f19601f8301169050919050565b6000610f3f82610edd565b610f498185610ee8565b9350610f59818560208601610ef9565b610f6281610f23565b840191505092915050565b60006020820190508181036000830152610f878184610f34565b905092915050565b600080fd5b600073ffffffffffffffffffffffffffffffffffffffff82169050919050565b6000610fbf82610f94565b9050919050565b610fcf81610fb4565b8114610fda57600080fd5b50565b600081359050610fec81610fc6565b92915050565b6000819050919050565b61100581610ff2565b811461101057600080fd5b50565b60008135905061102281610ffc565b92915050565b6000806040838503121561103f5761103e610f8f565b5b600061104d85828601610fdd565b925050602061105e85828601611013565b9150509250929050565b60008115159050919050565b61107d81611068565b82525050565b60006020820190506110986000830184611074565b92915050565b6110a781610ff2565b82525050565b60006020820190506110c2600083018461109e565b92915050565b6000806000606084860312156110e1576110e0610f8f565b5b60006110ef86828701610fdd565b935050602061110086828701610fdd565b925050604061111186828701611013565b9150509250925092565b600060ff82169050919050565b6111318161111b565b82525050565b600060208201905061114c6000830184611128565b92915050565b60006020828403121561116857611167610f8f565b5b600061117684828501610fdd565b91505092915050565b6000806040838503121561119657611195610f8f565b5b60006111a485828601610fdd565b92505060206111b585828601610fdd565b9150509250929050565b6000602082840312156111d5576111d4610f8f565b5b60006111e384828501611013565b91505092915050565b6000819050919050565b600061121161120c61120784610f94565b6111ec565b610f94565b9050919050565b6000611223826111f6565b9050919050565b600061123582611218565b9050919050565b6112458161122a565b82525050565b6000602082019050611260600083018461123c565b92915050565b7f4e487b7100000000000000000000000000000000000000000000000000000000600052601160045260246000fd5b60006112a082610ff2565b91506112ab83610ff2565b92508282039050818111156112c3576112c2611266565b5b92915050565b60006112d482610ff2565b91506112df83610ff2565b92508282019050808211156112f7576112f6611266565b5b92915050565b61130681610fb4565b82525050565b600060208201905061132160008301846112fd565b92915050565b60008151905061133681610ffc565b92915050565b60006020828403121561135257611351610f8f565b5b600061136084828501611327565b91505092915050565b7f596f75206e65656420746f2073656e6420736f6d652065746865720000000000600082015250565b600061139f601b83610ee8565b91506113aa82611369565b602082019050919050565b600060208201905081810360008301526113ce81611392565b9050919050565b7f4e6f7420656e6f75676820746f6b656e7320696e207468652072657365727665600082015250565b600061140b602083610ee8565b9150611416826113d5565b602082019050919050565b6000602082019050818103600083015261143a816113fe565b9050919050565b600060408201905061145660008301856112fd565b611463602083018461109e565b9392505050565b61147381611068565b811461147e57600080fd5b50565b6000815190506114908161146a565b92915050565b6000602082840312156114ac576114ab610f8f565b5b60006114ba84828501611481565b91505092915050565b7f596f75206e65656420746f2073656c6c206174206c6561737420736f6d65207460008201527f6f6b656e73000000000000000000000000000000000000000000000000000000602082015250565b600061151f602583610ee8565b915061152a826114c3565b604082019050919050565b6000602082019050818103600083015261154e81611512565b9050919050565b600060408201905061156a60008301856112fd565b61157760208301846112fd565b9392505050565b7f436865636b2074686520746f6b656e20616c6c6f77616e636500000000000000600082015250565b60006115b4601983610ee8565b91506115bf8261157e565b602082019050919050565b600060208201905081810360008301526115e3816115a7565b9050919050565b60006060820190506115ff60008301866112fd565b61160c60208301856112fd565b611619604083018461109e565b94935050505056fea26469706673582212208cd30436c41436abfc7c3ecc88e0c0e0d05370fefcf706ee6e50cc1e8cc15e8564736f6c63430008120033608060405269021e19e0c9bab240000060025534801561001e57600080fd5b506002546000803373ffffffffffffffffffffffffffffffffffffffff1673ffffffffffffffffffffffffffffffffffffffff16815260200190815260200160002081905550610d2b806100736000396000f3fe608060405234801561001057600080fd5b50600436106100935760003560e01c8063313ce56711610066578063313ce5671461013457806370a082311461015257806395d89b4114610182578063a9059cbb146101a0578063dd62ed3e146101d057610093565b806306fdde0314610098578063095ea7b3146100b657806318160ddd146100e657806323b872dd14610104575b600080fd5b6100a0610200565b6040516100ad9190610a0c565b60405180910390f35b6100d060048036038101906100cb9190610ac7565b610239565b6040516100dd9190610b22565b60405180910390f35b6100ee61032b565b6040516100fb9190610b4c565b60405180910390f35b61011e60048036038101906101199190610b67565b610335565b60405161012b9190610b22565b60405180910390f35b61013c61069b565b6040516101499190610bd6565b60405180910390f35b61016c60048036038101906101679190610bf1565b6106a0565b6040516101799190610b4c565b60405180910390f35b61018a6106e8565b6040516101979190610a0c565b60405180910390f35b6101ba60048036038101906101b59190610ac7565b610721565b6040516101c79190610b22565b60405180910390f35b6101ea60048036038101906101e59190610c1e565b6108f5565b6040516101f79190610b4c565b60405180910390f35b6040518060400160405280600d81526020017f436172626f6e204372656469740000000000000000000000000000000000000081525081565b600081600160003373ffffffffffffffffffffffffffffffffffffffff1673ffffffffffffffffffffffffffffffffffffffff16815260200190815260200160002060008573ffffffffffffffffffffffffffffffffffffffff1673ffffffffffffffffffffffffffffffffffffffff168152602001908152602001600020819055508273ffffffffffffffffffffffffffffffffffffffff163373ffffffffffffffffffffffffffffffffffffffff167f8c5be1e5ebec7d5bd14f71427d1e84f3dd0314c0f7b2291e5b200ac8c7c3b925846040516103199190610b4c565b60405180910390a36001905092915050565b6000600254905090565b60008060008573ffffffffffffffffffffffffffffffffffffffff1673ffffffffffffffffffffffffffffffffffffffff1681526020019081526020016000205482111561038257600080fd5b600160008573ffffffffffffffffffffffffffffffffffffffff1673ffffffffffffffffffffffffffffffffffffffff16815260200190815260200160002060003373ffffffffffffffffffffffffffffffffffffffff1673ffffffffffffffffffffffffffffffffffffffff1681526020019081526020016000205482111561040b57600080fd5b816000808673ffffffffffffffffffffffffffffffffffffffff1673ffffffffffffffffffffffffffffffffffffffff168152602001908152602001600020546104559190610c8d565b6000808673ffffffffffffffffffffffffffffffffffffffff1673ffffffffffffffffffffffffffffffffffffffff1681526020019081526020016000208190555081600160008673ffffffffffffffffffffffffffffffffffffffff1673ffffffffffffffffffffffffffffffffffffffff16815260200190815260200160002060003373ffffffffffffffffffffffffffffffffffffffff1673ffffffffffffffffffffffffffffffffffffffff1681526020019081526020016000205461051f9190610c8d565b600160008673ffffffffffffffffffffffffffffffffffffffff1673ffffffffffffffffffffffffffffffffffffffff16815260200190815260200160002060003373ffffffffffffffffffffffffffffffffffffffff1673ffffffffffffffffffffffffffffffffffffffff16815260200190815260200160002081905550816000808573ffffffffffffffffffffffffffffffffffffffff1673ffffffffffffffffffffffffffffffffffffffff168152602001908152602001600020546105e99190610cc1565b6000808573ffffffffffffffffffffffffffffffffffffffff1673ffffffffffffffffffffffffffffffffffffffff168152602001908152602001600020819055508273ffffffffffffffffffffffffffffffffffffffff168473ffffffffffffffffffffffffffffffffffffffff167fddf252ad1be2c89b69c2b068fc378daa952ba7f163c4a11628f55a4df523b3ef846040516106889190610b4c565b60405180910390a3600190509392505050565b601281565b60008060008373ffffffffffffffffffffffffffffffffffffffff1673ffffffffffffffffffffffffffffffffffffffff168152602001908152602001600020549050919050565b6040518060400160405280600481526020017f435242430000000000000000000000000000000000000000000000000000000081525081565b60008060003373ffffffffffffffffffffffffffffffffffffffff1673ffffffffffffffffffffffffffffffffffffffff1681526020019081526020016000205482111561076e57600080fd5b816000803373ffffffffffffffffffffffffffffffffffffffff1673ffffffffffffffffffffffffffffffffffffffff168152602001908152602001600020546107b89190610c8d565b6000803373ffffffffffffffffffffffffffffffffffffffff1673ffffffffffffffffffffffffffffffffffffffff16815260200190815260200160002081905550816000808573ffffffffffffffffffffffffffffffffffffffff1673ffffffffffffffffffffffffffffffffffffffff168152602001908152602001600020546108449190610cc1565b6000808573ffffffffffffffffffffffffffffffffffffffff1673ffffffffffffffffffffffffffffffffffffffff168152602001908152602001600020819055508273ffffffffffffffffffffffffffffffffffffffff163373ffffffffffffffffffffffffffffffffffffffff167fddf252ad1be2c89b69c2b068fc378daa952ba7f163c4a11628f55a4df523b3ef846040516108e39190610b4c565b60405180910390a36001905092915050565b6000600160008473ffffffffffffffffffffffffffffffffffffffff1673ffffffffffffffffffffffffffffffffffffffff16815260200190815260200160002060008373ffffffffffffffffffffffffffffffffffffffff1673ffffffffffffffffffffffffffffffffffffffff16815260200190815260200160002054905092915050565b600081519050919050565b600082825260208201905092915050565b60005b838110156109b657808201518184015260208101905061099b565b60008484015250505050565b6000601f19601f8301169050919050565b60006109de8261097c565b6109e88185610987565b93506109f8818560208601610998565b610a01816109c2565b840191505092915050565b60006020820190508181036000830152610a2681846109d3565b905092915050565b600080fd5b600073ffffffffffffffffffffffffffffffffffffffff82169050919050565b6000610a5e82610a33565b9050919050565b610a6e81610a53565b8114610a7957600080fd5b50565b600081359050610a8b81610a65565b92915050565b6000819050919050565b610aa481610a91565b8114610aaf57600080fd5b50565b600081359050610ac181610a9b565b92915050565b60008060408385031215610ade57610add610a2e565b5b6000610aec85828601610a7c565b9250506020610afd85828601610ab2565b9150509250929050565b60008115159050919050565b610b1c81610b07565b82525050565b6000602082019050610b376000830184610b13565b92915050565b610b4681610a91565b82525050565b6000602082019050610b616000830184610b3d565b92915050565b600080600060608486031215610b8057610b7f610a2e565b5b6000610b8e86828701610a7c565b9350506020610b9f86828701610a7c565b9250506040610bb086828701610ab2565b9150509250925092565b600060ff82169050919050565b610bd081610bba565b82525050565b6000602082019050610beb6000830184610bc7565b92915050565b600060208284031215610c0757610c06610a2e565b5b6000610c1584828501610a7c565b91505092915050565b60008060408385031215610c3557610c34610a2e565b5b6000610c4385828601610a7c565b9250506020610c5485828601610a7c565b9150509250929050565b7f4e487b7100000000000000000000000000000000000000000000000000000000600052601160045260246000fd5b6000610c9882610a91565b9150610ca383610a91565b9250828203905081811115610cbb57610cba610c5e565b5b92915050565b6000610ccc82610a91565b9150610cd783610a91565b9250828201905080821115610cef57610cee610c5e565b5b9291505056fea26469706673582212200801d6483905442789ccab7306e5899449e9de0b6d03200d5f148334d5028e9164736f6c63430008120033",
  "linkReferences": {},
  "deployedLinkReferences": {}
}