{
  "_format": "hh-sol-artifact-1",
  "contractName": "ProductMarketplace",
  "sourceName": "contracts/ProductMarketplace.sol",
  "abi": [
    {
      "inputs": [
        {
          "internalType": "address",
          "name": "_erc20TokenAddress",
          "type": "address"
        },
        {
          "internalType": "address",
          "name": "_wethTokenAddress",
          "type": "address"
        }
      ],
      "stateMutability": "nonpayable",
      "type": "constructor"
    },
    {
      "anonymous": false,
      "inputs": [
        {
          "indexed": true,
          "internalType": "address",
          "name": "sender",
          "type": "address"
        },
        {
          "indexed": false,
          "internalType": "uint256",
          "name": "erc20Amount",
          "type": "uint256"
        },
        {
          "indexed": false,
          "internalType": "uint256",
          "name": "wethAmount",
          "type": "uint256"
        }
      ],
      "name": "ProductPurchased",
      "type": "event"
    },
    {
      "inputs": [
        {
          "internalType": "uint256",
          "name": "_quantity",
          "type": "uint256"
        }
      ],
      "name": "buyProduct",
      "outputs": [],
      "stateMutability": "nonpayable",
      "type": "function"
    },
    {
      "inputs": [],
      "name": "conversionRate",
      "outputs": [
        {
          "internalType": "uint256",
          "name": "",
          "type": "uint256"
        }
      ],
      "stateMutability": "view",
      "type": "function"
    },
    {
      "inputs": [],
      "name": "erc20Token",
      "outputs": [
        {
          "internalType": "contract IERC20",
          "name": "",
          "type": "address"
        }
      ],
      "stateMutability": "view",
      "type": "function"
    },
    {
      "inputs": [],
      "name": "owner",
      "outputs": [
        {
          "internalType": "address",
          "name": "",
          "type": "address"
        }
      ],
      "stateMutability": "view",
      "type": "function"
    },
    {
      "inputs": [
        {
          "internalType": "address",
          "name": "",
          "type": "address"
        }
      ],
      "name": "productPrices",
      "outputs": [
        {
          "internalType": "uint256",
          "name": "",
          "type": "uint256"
        }
      ],
      "stateMutability": "view",
      "type": "function"
    },
    {
      "inputs": [
        {
          "internalType": "uint256",
          "name": "_price",
          "type": "uint256"
        }
      ],
      "name": "setProductPrice",
      "outputs": [],
      "stateMutability": "nonpayable",
      "type": "function"
    },
    {
      "inputs": [],
      "name": "wethToken",
      "outputs": [
        {
          "internalType": "contract ERC20",
          "name": "",
          "type": "address"
        }
      ],
      "stateMutability": "view",
      "type": "function"
    },
    {
      "inputs": [
        {
          "internalType": "address",
          "name": "_tokenAddress",
          "type": "address"
        },
        {
          "internalType": "uint256",
          "name": "_amount",
          "type": "uint256"
        }
      ],
      "name": "withdrawTokens",
      "outputs": [],
      "stateMutability": "nonpayable",
      "type": "function"
    }
  ],
  "bytecode": "0x608060405260646003553480156200001657600080fd5b50604051620014223803806200142283398181016040528101906200003c919062000170565b816000806101000a81548173ffffffffffffffffffffffffffffffffffffffff021916908373ffffffffffffffffffffffffffffffffffffffff16021790555080600160006101000a81548173ffffffffffffffffffffffffffffffffffffffff021916908373ffffffffffffffffffffffffffffffffffffffff16021790555033600260006101000a81548173ffffffffffffffffffffffffffffffffffffffff021916908373ffffffffffffffffffffffffffffffffffffffff1602179055505050620001b7565b600080fd5b600073ffffffffffffffffffffffffffffffffffffffff82169050919050565b600062000138826200010b565b9050919050565b6200014a816200012b565b81146200015657600080fd5b50565b6000815190506200016a816200013f565b92915050565b600080604083850312156200018a576200018962000106565b5b60006200019a8582860162000159565b9250506020620001ad8582860162000159565b9150509250929050565b61125b80620001c76000396000f3fe608060405234801561001057600080fd5b50600436106100885760003560e01c80638a13eea71161005b5780638a13eea7146101015780638da5cb5b1461011f578063deebcacd1461013d578063e0bcecbe1461015957610088565b806306b091f91461008d5780634b57b0be146100a95780637ffdf53e146100c75780638642269e146100e5575b600080fd5b6100a760048036038101906100a29190610a4d565b610189565b005b6100b1610270565b6040516100be9190610aec565b60405180910390f35b6100cf610296565b6040516100dc9190610b16565b60405180910390f35b6100ff60048036038101906100fa9190610b31565b61029c565b005b610109610567565b6040516101169190610b7f565b60405180910390f35b61012761058b565b6040516101349190610ba9565b60405180910390f35b61015760048036038101906101529190610b31565b6105b1565b005b610173600480360381019061016e9190610bc4565b6105f8565b6040516101809190610b16565b60405180910390f35b600260009054906101000a900473ffffffffffffffffffffffffffffffffffffffff1673ffffffffffffffffffffffffffffffffffffffff163373ffffffffffffffffffffffffffffffffffffffff1614610219576040517f08c379a000000000000000000000000000000000000000000000000000000000815260040161021090610c74565b60405180910390fd5b600082905061026b600260009054906101000a900473ffffffffffffffffffffffffffffffffffffffff16838373ffffffffffffffffffffffffffffffffffffffff166106109092919063ffffffff16565b505050565b600160009054906101000a900473ffffffffffffffffffffffffffffffffffffffff1681565b60035481565b6000600460003373ffffffffffffffffffffffffffffffffffffffff1673ffffffffffffffffffffffffffffffffffffffff16815260200190815260200160002054905060008111610323576040517f08c379a000000000000000000000000000000000000000000000000000000000815260040161031a90610ce0565b60405180910390fd5b600082826103319190610d2f565b90508060008054906101000a900473ffffffffffffffffffffffffffffffffffffffff1673ffffffffffffffffffffffffffffffffffffffff1663dd62ed3e33306040518363ffffffff1660e01b815260040161038f929190610d71565b602060405180830381865afa1580156103ac573d6000803e3d6000fd5b505050506040513d601f19601f820116820180604052508101906103d09190610daf565b1015610411576040517f08c379a000000000000000000000000000000000000000000000000000000000815260040161040890610e28565b60405180910390fd5b61045e33308360008054906101000a900473ffffffffffffffffffffffffffffffffffffffff1673ffffffffffffffffffffffffffffffffffffffff16610696909392919063ffffffff16565b60006003548261046e9190610e77565b9050600160009054906101000a900473ffffffffffffffffffffffffffffffffffffffff1673ffffffffffffffffffffffffffffffffffffffff1663a9059cbb33836040518363ffffffff1660e01b81526004016104cd929190610ea8565b6020604051808303816000875af11580156104ec573d6000803e3d6000fd5b505050506040513d601f19601f820116820180604052508101906105109190610f09565b503373ffffffffffffffffffffffffffffffffffffffff167f228a5d93a19503d5154326b1b21603e2cdd97bda22fc58196235b4490659fc018383604051610559929190610f36565b60405180910390a250505050565b60008054906101000a900473ffffffffffffffffffffffffffffffffffffffff1681565b600260009054906101000a900473ffffffffffffffffffffffffffffffffffffffff1681565b80600460003373ffffffffffffffffffffffffffffffffffffffff1673ffffffffffffffffffffffffffffffffffffffff1681526020019081526020016000208190555050565b60046020528060005260406000206000915090505481565b6106918363a9059cbb60e01b848460405160240161062f929190610ea8565b604051602081830303815290604052907bffffffffffffffffffffffffffffffffffffffffffffffffffffffff19166020820180517bffffffffffffffffffffffffffffffffffffffffffffffffffffffff838183161783525050505061071f565b505050565b610719846323b872dd60e01b8585856040516024016106b793929190610f5f565b604051602081830303815290604052907bffffffffffffffffffffffffffffffffffffffffffffffffffffffff19166020820180517bffffffffffffffffffffffffffffffffffffffffffffffffffffffff838183161783525050505061071f565b50505050565b6000610781826040518060400160405280602081526020017f5361666545524332303a206c6f772d6c6576656c2063616c6c206661696c65648152508573ffffffffffffffffffffffffffffffffffffffff166107e79092919063ffffffff16565b90506000815114806107a35750808060200190518101906107a29190610f09565b5b6107e2576040517f08c379a00000000000000000000000000000000000000000000000000000000081526004016107d990611008565b60405180910390fd5b505050565b60606107f684846000856107ff565b90509392505050565b606082471015610844576040517f08c379a000000000000000000000000000000000000000000000000000000000815260040161083b9061109a565b60405180910390fd5b6000808673ffffffffffffffffffffffffffffffffffffffff16858760405161086d919061112b565b60006040518083038185875af1925050503d80600081146108aa576040519150601f19603f3d011682016040523d82523d6000602084013e6108af565b606091505b50915091506108c0878383876108cc565b92505050949350505050565b6060831561092e576000835103610926576108e685610941565b610925576040517f08c379a000000000000000000000000000000000000000000000000000000000815260040161091c9061118e565b60405180910390fd5b5b829050610939565b6109388383610964565b5b949350505050565b6000808273ffffffffffffffffffffffffffffffffffffffff163b119050919050565b6000825111156109775781518083602001fd5b806040517f08c379a00000000000000000000000000000000000000000000000000000000081526004016109ab9190611203565b60405180910390fd5b600080fd5b600073ffffffffffffffffffffffffffffffffffffffff82169050919050565b60006109e4826109b9565b9050919050565b6109f4816109d9565b81146109ff57600080fd5b50565b600081359050610a11816109eb565b92915050565b6000819050919050565b610a2a81610a17565b8114610a3557600080fd5b50565b600081359050610a4781610a21565b92915050565b60008060408385031215610a6457610a636109b4565b5b6000610a7285828601610a02565b9250506020610a8385828601610a38565b9150509250929050565b6000819050919050565b6000610ab2610aad610aa8846109b9565b610a8d565b6109b9565b9050919050565b6000610ac482610a97565b9050919050565b6000610ad682610ab9565b9050919050565b610ae681610acb565b82525050565b6000602082019050610b016000830184610add565b92915050565b610b1081610a17565b82525050565b6000602082019050610b2b6000830184610b07565b92915050565b600060208284031215610b4757610b466109b4565b5b6000610b5584828501610a38565b91505092915050565b6000610b6982610ab9565b9050919050565b610b7981610b5e565b82525050565b6000602082019050610b946000830184610b70565b92915050565b610ba3816109d9565b82525050565b6000602082019050610bbe6000830184610b9a565b92915050565b600060208284031215610bda57610bd96109b4565b5b6000610be884828501610a02565b91505092915050565b600082825260208201905092915050565b7f4f6e6c792074686520636f6e7472616374206f776e65722063616e207769746860008201527f6472617720746f6b656e73000000000000000000000000000000000000000000602082015250565b6000610c5e602b83610bf1565b9150610c6982610c02565b604082019050919050565b60006020820190508181036000830152610c8d81610c51565b9050919050565b7f50726f64756374207072696365206e6f74207365740000000000000000000000600082015250565b6000610cca601583610bf1565b9150610cd582610c94565b602082019050919050565b60006020820190508181036000830152610cf981610cbd565b9050919050565b7f4e487b7100000000000000000000000000000000000000000000000000000000600052601160045260246000fd5b6000610d3a82610a17565b9150610d4583610a17565b9250828202610d5381610a17565b91508282048414831517610d6a57610d69610d00565b5b5092915050565b6000604082019050610d866000830185610b9a565b610d936020830184610b9a565b9392505050565b600081519050610da981610a21565b92915050565b600060208284031215610dc557610dc46109b4565b5b6000610dd384828501610d9a565b91505092915050565b7f496e73756666696369656e7420616c6c6f77616e636500000000000000000000600082015250565b6000610e12601683610bf1565b9150610e1d82610ddc565b602082019050919050565b60006020820190508181036000830152610e4181610e05565b9050919050565b7f4e487b7100000000000000000000000000000000000000000000000000000000600052601260045260246000fd5b6000610e8282610a17565b9150610e8d83610a17565b925082610e9d57610e9c610e48565b5b828204905092915050565b6000604082019050610ebd6000830185610b9a565b610eca6020830184610b07565b9392505050565b60008115159050919050565b610ee681610ed1565b8114610ef157600080fd5b50565b600081519050610f0381610edd565b92915050565b600060208284031215610f1f57610f1e6109b4565b5b6000610f2d84828501610ef4565b91505092915050565b6000604082019050610f4b6000830185610b07565b610f586020830184610b07565b9392505050565b6000606082019050610f746000830186610b9a565b610f816020830185610b9a565b610f8e6040830184610b07565b949350505050565b7f5361666545524332303a204552433230206f7065726174696f6e20646964206e60008201527f6f74207375636365656400000000000000000000000000000000000000000000602082015250565b6000610ff2602a83610bf1565b9150610ffd82610f96565b604082019050919050565b6000602082019050818103600083015261102181610fe5565b9050919050565b7f416464726573733a20696e73756666696369656e742062616c616e636520666f60008201527f722063616c6c0000000000000000000000000000000000000000000000000000602082015250565b6000611084602683610bf1565b915061108f82611028565b604082019050919050565b600060208201905081810360008301526110b381611077565b9050919050565b600081519050919050565b600081905092915050565b60005b838110156110ee5780820151818401526020810190506110d3565b60008484015250505050565b6000611105826110ba565b61110f81856110c5565b935061111f8185602086016110d0565b80840191505092915050565b600061113782846110fa565b915081905092915050565b7f416464726573733a2063616c6c20746f206e6f6e2d636f6e7472616374000000600082015250565b6000611178601d83610bf1565b915061118382611142565b602082019050919050565b600060208201905081810360008301526111a78161116b565b9050919050565b600081519050919050565b6000601f19601f8301169050919050565b60006111d5826111ae565b6111df8185610bf1565b93506111ef8185602086016110d0565b6111f8816111b9565b840191505092915050565b6000602082019050818103600083015261121d81846111ca565b90509291505056fea264697066735822122064fec5536efc33e8ac097f242599882ca3f9d46da26a87925bf533122b6535af64736f6c63430008120033",
  "linkReferences": {},
  "deployedLinkReferences": {}
}